{
  "_format": "hh-sol-artifact-1",
  "contractName": "NFTCollection",
  "sourceName": "contracts/NFTCollection.sol",
  "abi": [
    {
      "inputs": [],
      "stateMutability": "nonpayable",
      "type": "constructor"
    },
    {
      "inputs": [
        {
          "internalType": "address",
          "name": "sender",
          "type": "address"
        },
        {
          "internalType": "uint256",
          "name": "tokenId",
          "type": "uint256"
        },
        {
          "internalType": "address",
          "name": "owner",
          "type": "address"
        }
      ],
      "name": "ERC721IncorrectOwner",
      "type": "error"
    },
    {
      "inputs": [
        {
          "internalType": "address",
          "name": "operator",
          "type": "address"
        },
        {
          "internalType": "uint256",
          "name": "tokenId",
          "type": "uint256"
        }
      ],
      "name": "ERC721InsufficientApproval",
      "type": "error"
    },
    {
      "inputs": [
        {
          "internalType": "address",
          "name": "approver",
          "type": "address"
        }
      ],
      "name": "ERC721InvalidApprover",
      "type": "error"
    },
    {
      "inputs": [
        {
          "internalType": "address",
          "name": "operator",
          "type": "address"
        }
      ],
      "name": "ERC721InvalidOperator",
      "type": "error"
    },
    {
      "inputs": [
        {
          "internalType": "address",
          "name": "owner",
          "type": "address"
        }
      ],
      "name": "ERC721InvalidOwner",
      "type": "error"
    },
    {
      "inputs": [
        {
          "internalType": "address",
          "name": "receiver",
          "type": "address"
        }
      ],
      "name": "ERC721InvalidReceiver",
      "type": "error"
    },
    {
      "inputs": [
        {
          "internalType": "address",
          "name": "sender",
          "type": "address"
        }
      ],
      "name": "ERC721InvalidSender",
      "type": "error"
    },
    {
      "inputs": [
        {
          "internalType": "uint256",
          "name": "tokenId",
          "type": "uint256"
        }
      ],
      "name": "ERC721NonexistentToken",
      "type": "error"
    },
    {
      "anonymous": false,
      "inputs": [
        {
          "indexed": true,
          "internalType": "address",
          "name": "owner",
          "type": "address"
        },
        {
          "indexed": true,
          "internalType": "address",
          "name": "approved",
          "type": "address"
        },
        {
          "indexed": true,
          "internalType": "uint256",
          "name": "tokenId",
          "type": "uint256"
        }
      ],
      "name": "Approval",
      "type": "event"
    },
    {
      "anonymous": false,
      "inputs": [
        {
          "indexed": true,
          "internalType": "address",
          "name": "owner",
          "type": "address"
        },
        {
          "indexed": true,
          "internalType": "address",
          "name": "operator",
          "type": "address"
        },
        {
          "indexed": false,
          "internalType": "bool",
          "name": "approved",
          "type": "bool"
        }
      ],
      "name": "ApprovalForAll",
      "type": "event"
    },
    {
      "anonymous": false,
      "inputs": [
        {
          "indexed": false,
          "internalType": "uint256",
          "name": "tokenId",
          "type": "uint256"
        },
        {
          "indexed": false,
          "internalType": "address",
          "name": "ownerOf",
          "type": "address"
        },
        {
          "indexed": false,
          "internalType": "string",
          "name": "url",
          "type": "string"
        },
        {
          "indexed": false,
          "internalType": "bool",
          "name": "isReveal",
          "type": "bool"
        },
        {
          "indexed": false,
          "internalType": "string",
          "name": "authur",
          "type": "string"
        }
      ],
      "name": "ItemLog",
      "type": "event"
    },
    {
      "anonymous": false,
      "inputs": [
        {
          "indexed": true,
          "internalType": "address",
          "name": "from",
          "type": "address"
        },
        {
          "indexed": true,
          "internalType": "address",
          "name": "to",
          "type": "address"
        },
        {
          "indexed": true,
          "internalType": "uint256",
          "name": "tokenId",
          "type": "uint256"
        }
      ],
      "name": "Transfer",
      "type": "event"
    },
    {
      "inputs": [
        {
          "internalType": "address",
          "name": "to",
          "type": "address"
        },
        {
          "internalType": "uint256",
          "name": "tokenId",
          "type": "uint256"
        }
      ],
      "name": "approve",
      "outputs": [],
      "stateMutability": "nonpayable",
      "type": "function"
    },
    {
      "inputs": [
        {
          "internalType": "address",
          "name": "owner",
          "type": "address"
        }
      ],
      "name": "balanceOf",
      "outputs": [
        {
          "internalType": "uint256",
          "name": "",
          "type": "uint256"
        }
      ],
      "stateMutability": "view",
      "type": "function"
    },
    {
      "inputs": [
        {
          "internalType": "uint256",
          "name": "tokenId",
          "type": "uint256"
        }
      ],
      "name": "getApproved",
      "outputs": [
        {
          "internalType": "address",
          "name": "",
          "type": "address"
        }
      ],
      "stateMutability": "view",
      "type": "function"
    },
    {
      "inputs": [],
      "name": "getTotalSupply",
      "outputs": [
        {
          "internalType": "uint256",
          "name": "",
          "type": "uint256"
        }
      ],
      "stateMutability": "view",
      "type": "function"
    },
    {
      "inputs": [
        {
          "internalType": "address",
          "name": "owner",
          "type": "address"
        },
        {
          "internalType": "address",
          "name": "operator",
          "type": "address"
        }
      ],
      "name": "isApprovedForAll",
      "outputs": [
        {
          "internalType": "bool",
          "name": "",
          "type": "bool"
        }
      ],
      "stateMutability": "view",
      "type": "function"
    },
    {
      "inputs": [
        {
          "internalType": "uint256",
          "name": "",
          "type": "uint256"
        }
      ],
      "name": "items",
      "outputs": [
        {
          "internalType": "address",
          "name": "ownerOf",
          "type": "address"
        },
        {
          "internalType": "bool",
          "name": "isReveal",
          "type": "bool"
        },
        {
          "internalType": "string",
          "name": "tokenURL",
          "type": "string"
        },
        {
          "internalType": "string",
          "name": "authur",
          "type": "string"
        }
      ],
      "stateMutability": "view",
      "type": "function"
    },
    {
      "inputs": [],
      "name": "mintMany",
      "outputs": [],
      "stateMutability": "nonpayable",
      "type": "function"
    },
    {
      "inputs": [],
      "name": "name",
      "outputs": [
        {
          "internalType": "string",
          "name": "",
          "type": "string"
        }
      ],
      "stateMutability": "view",
      "type": "function"
    },
    {
      "inputs": [
        {
          "internalType": "uint256",
          "name": "tokenId",
          "type": "uint256"
        }
      ],
      "name": "ownerOf",
      "outputs": [
        {
          "internalType": "address",
          "name": "",
          "type": "address"
        }
      ],
      "stateMutability": "view",
      "type": "function"
    },
    {
      "inputs": [],
      "name": "preRevealURL",
      "outputs": [
        {
          "internalType": "string",
          "name": "",
          "type": "string"
        }
      ],
      "stateMutability": "view",
      "type": "function"
    },
    {
      "inputs": [
        {
          "internalType": "address",
          "name": "_to",
          "type": "address"
        },
        {
          "internalType": "string",
          "name": "_authur",
          "type": "string"
        }
      ],
      "name": "safeMint",
      "outputs": [],
      "stateMutability": "nonpayable",
      "type": "function"
    },
    {
      "inputs": [
        {
          "internalType": "address",
          "name": "from",
          "type": "address"
        },
        {
          "internalType": "address",
          "name": "to",
          "type": "address"
        },
        {
          "internalType": "uint256",
          "name": "tokenId",
          "type": "uint256"
        }
      ],
      "name": "safeTransferFrom",
      "outputs": [],
      "stateMutability": "nonpayable",
      "type": "function"
    },
    {
      "inputs": [
        {
          "internalType": "address",
          "name": "from",
          "type": "address"
        },
        {
          "internalType": "address",
          "name": "to",
          "type": "address"
        },
        {
          "internalType": "uint256",
          "name": "tokenId",
          "type": "uint256"
        },
        {
          "internalType": "bytes",
          "name": "data",
          "type": "bytes"
        }
      ],
      "name": "safeTransferFrom",
      "outputs": [],
      "stateMutability": "nonpayable",
      "type": "function"
    },
    {
      "inputs": [
        {
          "internalType": "address",
          "name": "operator",
          "type": "address"
        },
        {
          "internalType": "bool",
          "name": "approved",
          "type": "bool"
        }
      ],
      "name": "setApprovalForAll",
      "outputs": [],
      "stateMutability": "nonpayable",
      "type": "function"
    },
    {
      "inputs": [
        {
          "internalType": "uint256",
          "name": "_tokenId",
          "type": "uint256"
        },
        {
          "internalType": "string",
          "name": "_uri",
          "type": "string"
        }
      ],
      "name": "setReveal",
      "outputs": [],
      "stateMutability": "nonpayable",
      "type": "function"
    },
    {
      "inputs": [
        {
          "internalType": "uint256",
          "name": "_tokenId",
          "type": "uint256"
        }
      ],
      "name": "setReveal",
      "outputs": [],
      "stateMutability": "nonpayable",
      "type": "function"
    },
    {
      "inputs": [
        {
          "internalType": "bytes4",
          "name": "interfaceId",
          "type": "bytes4"
        }
      ],
      "name": "supportsInterface",
      "outputs": [
        {
          "internalType": "bool",
          "name": "",
          "type": "bool"
        }
      ],
      "stateMutability": "view",
      "type": "function"
    },
    {
      "inputs": [],
      "name": "symbol",
      "outputs": [
        {
          "internalType": "string",
          "name": "",
          "type": "string"
        }
      ],
      "stateMutability": "view",
      "type": "function"
    },
    {
      "inputs": [
        {
          "internalType": "uint256",
          "name": "tokenId",
          "type": "uint256"
        }
      ],
      "name": "tokenURI",
      "outputs": [
        {
          "internalType": "string",
          "name": "",
          "type": "string"
        }
      ],
      "stateMutability": "view",
      "type": "function"
    },
    {
      "inputs": [
        {
          "internalType": "address",
          "name": "from",
          "type": "address"
        },
        {
          "internalType": "address",
          "name": "to",
          "type": "address"
        },
        {
          "internalType": "uint256",
          "name": "_tokenId",
          "type": "uint256"
        }
      ],
      "name": "transferFrom",
      "outputs": [],
      "stateMutability": "nonpayable",
      "type": "function"
    }
  ],
  "bytecode": "0x6080604052604051806080016040528060438152602001620033ca60439139600790816200002e91906200037a565b506040518060600160405280603581526020016200340d60359139600890816200005991906200037a565b503480156200006757600080fd5b506040518060400160405280600581526020017f4d794e46540000000000000000000000000000000000000000000000000000008152506040518060400160405280600481526020017f4d4e4654000000000000000000000000000000000000000000000000000000008152508160009081620000e591906200037a565b508060019081620000f791906200037a565b50505062000461565b600081519050919050565b7f4e487b7100000000000000000000000000000000000000000000000000000000600052604160045260246000fd5b7f4e487b7100000000000000000000000000000000000000000000000000000000600052602260045260246000fd5b600060028204905060018216806200018257607f821691505b6020821081036200019857620001976200013a565b5b50919050565b60008190508160005260206000209050919050565b60006020601f8301049050919050565b600082821b905092915050565b600060088302620002027fffffffffffffffffffffffffffffffffffffffffffffffffffffffffffffffff82620001c3565b6200020e8683620001c3565b95508019841693508086168417925050509392505050565b6000819050919050565b6000819050919050565b60006200025b620002556200024f8462000226565b62000230565b62000226565b9050919050565b6000819050919050565b62000277836200023a565b6200028f620002868262000262565b848454620001d0565b825550505050565b600090565b620002a662000297565b620002b38184846200026c565b505050565b5b81811015620002db57620002cf6000826200029c565b600181019050620002b9565b5050565b601f8211156200032a57620002f4816200019e565b620002ff84620001b3565b810160208510156200030f578190505b620003276200031e85620001b3565b830182620002b8565b50505b505050565b600082821c905092915050565b60006200034f600019846008026200032f565b1980831691505092915050565b60006200036a83836200033c565b9150826002028217905092915050565b620003858262000100565b67ffffffffffffffff811115620003a157620003a06200010b565b5b620003ad825462000169565b620003ba828285620002df565b600060209050601f831160018114620003f25760008415620003dd578287015190505b620003e985826200035c565b86555062000459565b601f19841662000402866200019e565b60005b828110156200042c5784890151825560018201915060208501945060208101905062000405565b868310156200044c578489015162000448601f8916826200033c565b8355505b6001600288020188555050505b505050505050565b612f5980620004716000396000f3fe608060405234801561001057600080fd5b506004361061012c5760003560e01c806395d89b41116100ad578063c4e41b2211610071578063c4e41b2214610330578063c50c81861461034e578063c87b56dd1461036a578063d204c45e1461039a578063e985e9c5146103b65761012c565b806395d89b411461028b5780639b88d0d5146102a9578063a22cb465146102c5578063b88d4fde146102e1578063bfb231d2146102fd5761012c565b806323b872dd116100f457806323b872dd146101e957806337c1e4331461020557806342842e0e1461020f5780636352211e1461022b57806370a082311461025b5761012c565b806301ffc9a71461013157806303a373131461016157806306fdde031461017f578063081812fc1461019d578063095ea7b3146101cd575b600080fd5b61014b60048036038101906101469190611f19565b6103e6565b6040516101589190611f61565b60405180910390f35b6101696104c8565b604051610176919061200c565b60405180910390f35b610187610556565b604051610194919061200c565b60405180910390f35b6101b760048036038101906101b29190612064565b6105e8565b6040516101c491906120d2565b60405180910390f35b6101e760048036038101906101e29190612119565b610604565b005b61020360048036038101906101fe9190612159565b61061a565b005b61020d61067f565b005b61022960048036038101906102249190612159565b610681565b005b61024560048036038101906102409190612064565b6106a1565b60405161025291906120d2565b60405180910390f35b610275600480360381019061027091906121ac565b6106b3565b60405161028291906121e8565b60405180910390f35b61029361076d565b6040516102a0919061200c565b60405180910390f35b6102c360048036038101906102be9190612338565b6107ff565b005b6102df60048036038101906102da91906123c0565b6109bc565b005b6102fb60048036038101906102f691906124a1565b6109d2565b005b61031760048036038101906103129190612064565b6109ef565b6040516103279493929190612524565b60405180910390f35b610338610b5c565b60405161034591906121e8565b60405180910390f35b61036860048036038101906103639190612064565b610b66565b005b610384600480360381019061037f9190612064565b610d53565b604051610391919061200c565b60405180910390f35b6103b460048036038101906103af9190612577565b610dbc565b005b6103d060048036038101906103cb91906125d3565b610ef4565b6040516103dd9190611f61565b60405180910390f35b60007f80ac58cd000000000000000000000000000000000000000000000000000000007bffffffffffffffffffffffffffffffffffffffffffffffffffffffff1916827bffffffffffffffffffffffffffffffffffffffffffffffffffffffff191614806104b157507f5b5e139f000000000000000000000000000000000000000000000000000000007bffffffffffffffffffffffffffffffffffffffffffffffffffffffff1916827bffffffffffffffffffffffffffffffffffffffffffffffffffffffff1916145b806104c157506104c082610f88565b5b9050919050565b600880546104d590612642565b80601f016020809104026020016040519081016040528092919081815260200182805461050190612642565b801561054e5780601f106105235761010080835404028352916020019161054e565b820191906000526020600020905b81548152906001019060200180831161053157829003601f168201915b505050505081565b60606000805461056590612642565b80601f016020809104026020016040519081016040528092919081815260200182805461059190612642565b80156105de5780601f106105b3576101008083540402835291602001916105de565b820191906000526020600020905b8154815290600101906020018083116105c157829003601f168201915b5050505050905090565b60006105f382610ff2565b506105fd8261107a565b9050919050565b61061682826106116110b7565b6110bf565b5050565b6106258383836110d1565b816009600083815260200190815260200160002060000160006101000a81548173ffffffffffffffffffffffffffffffffffffffff021916908373ffffffffffffffffffffffffffffffffffffffff160217905550505050565b565b61069c838383604051806020016040528060008152506109d2565b505050565b60006106ac82610ff2565b9050919050565b60008073ffffffffffffffffffffffffffffffffffffffff168273ffffffffffffffffffffffffffffffffffffffff16036107265760006040517f89c62b6400000000000000000000000000000000000000000000000000000000815260040161071d91906120d2565b60405180910390fd5b600360008373ffffffffffffffffffffffffffffffffffffffff1673ffffffffffffffffffffffffffffffffffffffff168152602001908152602001600020549050919050565b60606001805461077c90612642565b80601f01602080910402602001604051908101604052809291908181526020018280546107a890612642565b80156107f55780601f106107ca576101008083540402835291602001916107f5565b820191906000526020600020905b8154815290600101906020018083116107d857829003601f168201915b5050505050905090565b6009600083815260200190815260200160002060000160009054906101000a900473ffffffffffffffffffffffffffffffffffffffff163373ffffffffffffffffffffffffffffffffffffffff168173ffffffffffffffffffffffffffffffffffffffff16146108a4576040517f08c379a000000000000000000000000000000000000000000000000000000000815260040161089b906126e5565b60405180910390fd5b6009600084815260200190815260200160002060000160149054906101000a900460ff16610907576040517f08c379a00000000000000000000000000000000000000000000000000000000081526004016108fe90612777565b60405180910390fd5b8160096000858152602001908152602001600020600101908161092a9190612943565b507fc01a8c6d23a2c21a774e9e802e60c9b8db01fa7b897143a6c588a0160feb8d618333600960008781526020019081526020016000206001016009600088815260200190815260200160002060000160149054906101000a900460ff16600960008981526020019081526020016000206002016040516109af959493929190612a99565b60405180910390a1505050565b6109ce6109c76110b7565b83836110f1565b5050565b6109dd84848461061a565b6109e984848484611260565b50505050565b60096020528060005260406000206000915090508060000160009054906101000a900473ffffffffffffffffffffffffffffffffffffffff16908060000160149054906101000a900460ff1690806001018054610a4b90612642565b80601f0160208091040260200160405190810160405280929190818152602001828054610a7790612642565b8015610ac45780601f10610a9957610100808354040283529160200191610ac4565b820191906000526020600020905b815481529060010190602001808311610aa757829003601f168201915b505050505090806002018054610ad990612642565b80601f0160208091040260200160405190810160405280929190818152602001828054610b0590612642565b8015610b525780601f10610b2757610100808354040283529160200191610b52565b820191906000526020600020905b815481529060010190602001808311610b3557829003601f168201915b5050505050905084565b6000600654905090565b6009600082815260200190815260200160002060000160009054906101000a900473ffffffffffffffffffffffffffffffffffffffff163373ffffffffffffffffffffffffffffffffffffffff168173ffffffffffffffffffffffffffffffffffffffff1614610c0b576040517f08c379a0000000000000000000000000000000000000000000000000000000008152600401610c02906126e5565b60405180910390fd5b6009600083815260200190815260200160002060000160149054906101000a900460ff1615610c6f576040517f08c379a0000000000000000000000000000000000000000000000000000000008152600401610c6690612b46565b60405180910390fd5b60016009600084815260200190815260200160002060000160146101000a81548160ff0219169083151502179055506007600960008481526020019081526020016000206001019081610cc29190612b91565b507fc01a8c6d23a2c21a774e9e802e60c9b8db01fa7b897143a6c588a0160feb8d618233600960008681526020019081526020016000206001016009600087815260200190815260200160002060000160149054906101000a900460ff1660096000888152602001908152602001600020600201604051610d47959493929190612a99565b60405180910390a15050565b6060610d5e82610ff2565b506000610d69611417565b90506000815111610d895760405180602001604052806000815250610db4565b80610d938461142e565b604051602001610da4929190612cb5565b6040516020818303038152906040525b915050919050565b600060066000815480929190610dd190612d08565b919050559050610de183826114fc565b336009600083815260200190815260200160002060000160006101000a81548173ffffffffffffffffffffffffffffffffffffffff021916908373ffffffffffffffffffffffffffffffffffffffff16021790555060006009600083815260200190815260200160002060000160146101000a81548160ff0219169083151502179055506008600960008381526020019081526020016000206001019081610e899190612b91565b5081600960008381526020019081526020016000206002019081610ead9190612943565b507fc01a8c6d23a2c21a774e9e802e60c9b8db01fa7b897143a6c588a0160feb8d6181336008600086604051610ee7959493929190612d50565b60405180910390a1505050565b6000600560008473ffffffffffffffffffffffffffffffffffffffff1673ffffffffffffffffffffffffffffffffffffffff16815260200190815260200160002060008373ffffffffffffffffffffffffffffffffffffffff1673ffffffffffffffffffffffffffffffffffffffff16815260200190815260200160002060009054906101000a900460ff16905092915050565b60007f01ffc9a7000000000000000000000000000000000000000000000000000000007bffffffffffffffffffffffffffffffffffffffffffffffffffffffff1916827bffffffffffffffffffffffffffffffffffffffffffffffffffffffff1916149050919050565b600080610ffe8361151a565b9050600073ffffffffffffffffffffffffffffffffffffffff168173ffffffffffffffffffffffffffffffffffffffff160361107157826040517f7e27328900000000000000000000000000000000000000000000000000000000815260040161106891906121e8565b60405180910390fd5b80915050919050565b60006004600083815260200190815260200160002060009054906101000a900473ffffffffffffffffffffffffffffffffffffffff169050919050565b600033905090565b6110cc8383836001611557565b505050565b6110ec8383836040518060200160405280600081525061171c565b505050565b600073ffffffffffffffffffffffffffffffffffffffff168273ffffffffffffffffffffffffffffffffffffffff160361116257816040517f5b08ba1800000000000000000000000000000000000000000000000000000000815260040161115991906120d2565b60405180910390fd5b80600560008573ffffffffffffffffffffffffffffffffffffffff1673ffffffffffffffffffffffffffffffffffffffff16815260200190815260200160002060008473ffffffffffffffffffffffffffffffffffffffff1673ffffffffffffffffffffffffffffffffffffffff16815260200190815260200160002060006101000a81548160ff0219169083151502179055508173ffffffffffffffffffffffffffffffffffffffff168373ffffffffffffffffffffffffffffffffffffffff167f17307eab39ab6107e8899845ad3d59bd9653f200f220920489ca2b5937696c31836040516112539190611f61565b60405180910390a3505050565b60008373ffffffffffffffffffffffffffffffffffffffff163b1115611411578273ffffffffffffffffffffffffffffffffffffffff1663150b7a026112a46110b7565b8685856040518563ffffffff1660e01b81526004016112c69493929190612e06565b6020604051808303816000875af192505050801561130257506040513d601f19601f820116820180604052508101906112ff9190612e67565b60015b611386573d8060008114611332576040519150601f19603f3d011682016040523d82523d6000602084013e611337565b606091505b50600081510361137e57836040517f64a0ae9200000000000000000000000000000000000000000000000000000000815260040161137591906120d2565b60405180910390fd5b805181602001fd5b63150b7a0260e01b7bffffffffffffffffffffffffffffffffffffffffffffffffffffffff1916817bffffffffffffffffffffffffffffffffffffffffffffffffffffffff19161461140f57836040517f64a0ae9200000000000000000000000000000000000000000000000000000000815260040161140691906120d2565b60405180910390fd5b505b50505050565b606060405180602001604052806000815250905090565b60606000600161143d84611739565b01905060008167ffffffffffffffff81111561145c5761145b61220d565b5b6040519080825280601f01601f19166020018201604052801561148e5781602001600182028036833780820191505090505b509050600082602001820190505b6001156114f1578080600190039150507f3031323334353637383961626364656600000000000000000000000000000000600a86061a8153600a85816114e5576114e4612e94565b5b0494506000850361149c575b819350505050919050565b61151682826040518060200160405280600081525061188c565b5050565b60006002600083815260200190815260200160002060009054906101000a900473ffffffffffffffffffffffffffffffffffffffff169050919050565b80806115905750600073ffffffffffffffffffffffffffffffffffffffff168273ffffffffffffffffffffffffffffffffffffffff1614155b156116c45760006115a084610ff2565b9050600073ffffffffffffffffffffffffffffffffffffffff168373ffffffffffffffffffffffffffffffffffffffff161415801561160b57508273ffffffffffffffffffffffffffffffffffffffff168173ffffffffffffffffffffffffffffffffffffffff1614155b801561161e575061161c8184610ef4565b155b1561166057826040517fa9fbf51f00000000000000000000000000000000000000000000000000000000815260040161165791906120d2565b60405180910390fd5b81156116c257838573ffffffffffffffffffffffffffffffffffffffff168273ffffffffffffffffffffffffffffffffffffffff167f8c5be1e5ebec7d5bd14f71427d1e84f3dd0314c0f7b2291e5b200ac8c7c3b92560405160405180910390a45b505b836004600085815260200190815260200160002060006101000a81548173ffffffffffffffffffffffffffffffffffffffff021916908373ffffffffffffffffffffffffffffffffffffffff16021790555050505050565b6117278484846118a8565b61173384848484611260565b50505050565b600080600090507a184f03e93ff9f4daa797ed6e38ed64bf6a1f0100000000000000008310611797577a184f03e93ff9f4daa797ed6e38ed64bf6a1f010000000000000000838161178d5761178c612e94565b5b0492506040810190505b6d04ee2d6d415b85acef810000000083106117d4576d04ee2d6d415b85acef810000000083816117ca576117c9612e94565b5b0492506020810190505b662386f26fc10000831061180357662386f26fc1000083816117f9576117f8612e94565b5b0492506010810190505b6305f5e100831061182c576305f5e100838161182257611821612e94565b5b0492506008810190505b612710831061185157612710838161184757611846612e94565b5b0492506004810190505b60648310611874576064838161186a57611869612e94565b5b0492506002810190505b600a8310611883576001810190505b80915050919050565b6118968383611a15565b6118a36000848484611260565b505050565b600073ffffffffffffffffffffffffffffffffffffffff168273ffffffffffffffffffffffffffffffffffffffff160361191a5760006040517f64a0ae9200000000000000000000000000000000000000000000000000000000815260040161191191906120d2565b60405180910390fd5b600061192883836000611b0e565b9050600073ffffffffffffffffffffffffffffffffffffffff168173ffffffffffffffffffffffffffffffffffffffff160361199b57816040517f7e27328900000000000000000000000000000000000000000000000000000000815260040161199291906121e8565b60405180910390fd5b8373ffffffffffffffffffffffffffffffffffffffff168173ffffffffffffffffffffffffffffffffffffffff1614611a0f578382826040517f64283d7b000000000000000000000000000000000000000000000000000000008152600401611a0693929190612ec3565b60405180910390fd5b50505050565b600073ffffffffffffffffffffffffffffffffffffffff168273ffffffffffffffffffffffffffffffffffffffff1603611a875760006040517f64a0ae92000000000000000000000000000000000000000000000000000000008152600401611a7e91906120d2565b60405180910390fd5b6000611a9583836000611b0e565b9050600073ffffffffffffffffffffffffffffffffffffffff168173ffffffffffffffffffffffffffffffffffffffff1614611b095760006040517f73c6ac6e000000000000000000000000000000000000000000000000000000008152600401611b0091906120d2565b60405180910390fd5b505050565b600080611b1a8461151a565b9050600073ffffffffffffffffffffffffffffffffffffffff168373ffffffffffffffffffffffffffffffffffffffff1614611b5c57611b5b818486611d28565b5b600073ffffffffffffffffffffffffffffffffffffffff168173ffffffffffffffffffffffffffffffffffffffff1614611bed57611b9e600085600080611557565b6001600360008373ffffffffffffffffffffffffffffffffffffffff1673ffffffffffffffffffffffffffffffffffffffff168152602001908152602001600020600082825403925050819055505b600073ffffffffffffffffffffffffffffffffffffffff168573ffffffffffffffffffffffffffffffffffffffff1614611c70576001600360008773ffffffffffffffffffffffffffffffffffffffff1673ffffffffffffffffffffffffffffffffffffffff168152602001908152602001600020600082825401925050819055505b846002600086815260200190815260200160002060006101000a81548173ffffffffffffffffffffffffffffffffffffffff021916908373ffffffffffffffffffffffffffffffffffffffff160217905550838573ffffffffffffffffffffffffffffffffffffffff168273ffffffffffffffffffffffffffffffffffffffff167fddf252ad1be2c89b69c2b068fc378daa952ba7f163c4a11628f55a4df523b3ef60405160405180910390a4809150509392505050565b611d33838383611dec565b611de757600073ffffffffffffffffffffffffffffffffffffffff168373ffffffffffffffffffffffffffffffffffffffff1603611da857806040517f7e273289000000000000000000000000000000000000000000000000000000008152600401611d9f91906121e8565b60405180910390fd5b81816040517f177e802f000000000000000000000000000000000000000000000000000000008152600401611dde929190612efa565b60405180910390fd5b505050565b60008073ffffffffffffffffffffffffffffffffffffffff168373ffffffffffffffffffffffffffffffffffffffff1614158015611ea457508273ffffffffffffffffffffffffffffffffffffffff168473ffffffffffffffffffffffffffffffffffffffff161480611e655750611e648484610ef4565b5b80611ea357508273ffffffffffffffffffffffffffffffffffffffff16611e8b8361107a565b73ffffffffffffffffffffffffffffffffffffffff16145b5b90509392505050565b6000604051905090565b600080fd5b600080fd5b60007fffffffff0000000000000000000000000000000000000000000000000000000082169050919050565b611ef681611ec1565b8114611f0157600080fd5b50565b600081359050611f1381611eed565b92915050565b600060208284031215611f2f57611f2e611eb7565b5b6000611f3d84828501611f04565b91505092915050565b60008115159050919050565b611f5b81611f46565b82525050565b6000602082019050611f766000830184611f52565b92915050565b600081519050919050565b600082825260208201905092915050565b60005b83811015611fb6578082015181840152602081019050611f9b565b60008484015250505050565b6000601f19601f8301169050919050565b6000611fde82611f7c565b611fe88185611f87565b9350611ff8818560208601611f98565b61200181611fc2565b840191505092915050565b600060208201905081810360008301526120268184611fd3565b905092915050565b6000819050919050565b6120418161202e565b811461204c57600080fd5b50565b60008135905061205e81612038565b92915050565b60006020828403121561207a57612079611eb7565b5b60006120888482850161204f565b91505092915050565b600073ffffffffffffffffffffffffffffffffffffffff82169050919050565b60006120bc82612091565b9050919050565b6120cc816120b1565b82525050565b60006020820190506120e760008301846120c3565b92915050565b6120f6816120b1565b811461210157600080fd5b50565b600081359050612113816120ed565b92915050565b600080604083850312156121305761212f611eb7565b5b600061213e85828601612104565b925050602061214f8582860161204f565b9150509250929050565b60008060006060848603121561217257612171611eb7565b5b600061218086828701612104565b935050602061219186828701612104565b92505060406121a28682870161204f565b9150509250925092565b6000602082840312156121c2576121c1611eb7565b5b60006121d084828501612104565b91505092915050565b6121e28161202e565b82525050565b60006020820190506121fd60008301846121d9565b92915050565b600080fd5b600080fd5b7f4e487b7100000000000000000000000000000000000000000000000000000000600052604160045260246000fd5b61224582611fc2565b810181811067ffffffffffffffff821117156122645761226361220d565b5b80604052505050565b6000612277611ead565b9050612283828261223c565b919050565b600067ffffffffffffffff8211156122a3576122a261220d565b5b6122ac82611fc2565b9050602081019050919050565b82818337600083830152505050565b60006122db6122d684612288565b61226d565b9050828152602081018484840111156122f7576122f6612208565b5b6123028482856122b9565b509392505050565b600082601f83011261231f5761231e612203565b5b813561232f8482602086016122c8565b91505092915050565b6000806040838503121561234f5761234e611eb7565b5b600061235d8582860161204f565b925050602083013567ffffffffffffffff81111561237e5761237d611ebc565b5b61238a8582860161230a565b9150509250929050565b61239d81611f46565b81146123a857600080fd5b50565b6000813590506123ba81612394565b92915050565b600080604083850312156123d7576123d6611eb7565b5b60006123e585828601612104565b92505060206123f6858286016123ab565b9150509250929050565b600067ffffffffffffffff82111561241b5761241a61220d565b5b61242482611fc2565b9050602081019050919050565b600061244461243f84612400565b61226d565b9050828152602081018484840111156124605761245f612208565b5b61246b8482856122b9565b509392505050565b600082601f83011261248857612487612203565b5b8135612498848260208601612431565b91505092915050565b600080600080608085870312156124bb576124ba611eb7565b5b60006124c987828801612104565b94505060206124da87828801612104565b93505060406124eb8782880161204f565b925050606085013567ffffffffffffffff81111561250c5761250b611ebc565b5b61251887828801612473565b91505092959194509250565b600060808201905061253960008301876120c3565b6125466020830186611f52565b81810360408301526125588185611fd3565b9050818103606083015261256c8184611fd3565b905095945050505050565b6000806040838503121561258e5761258d611eb7565b5b600061259c85828601612104565b925050602083013567ffffffffffffffff8111156125bd576125bc611ebc565b5b6125c98582860161230a565b9150509250929050565b600080604083850312156125ea576125e9611eb7565b5b60006125f885828601612104565b925050602061260985828601612104565b9150509250929050565b7f4e487b7100000000000000000000000000000000000000000000000000000000600052602260045260246000fd5b6000600282049050600182168061265a57607f821691505b60208210810361266d5761266c612613565b5b50919050565b7f4f6e6c792074727565206f776e65722063616e20706572666f726d207468697360008201527f20616374696f6e00000000000000000000000000000000000000000000000000602082015250565b60006126cf602783611f87565b91506126da82612673565b604082019050919050565b600060208201905081810360008301526126fe816126c2565b9050919050565b7f596f7527766520746f2072657665616c2074686973206974656d20666972737460008201527f2100000000000000000000000000000000000000000000000000000000000000602082015250565b6000612761602183611f87565b915061276c82612705565b604082019050919050565b6000602082019050818103600083015261279081612754565b9050919050565b60008190508160005260206000209050919050565b60006020601f8301049050919050565b600082821b905092915050565b6000600883026127f97fffffffffffffffffffffffffffffffffffffffffffffffffffffffffffffffff826127bc565b61280386836127bc565b95508019841693508086168417925050509392505050565b6000819050919050565b600061284061283b6128368461202e565b61281b565b61202e565b9050919050565b6000819050919050565b61285a83612825565b61286e61286682612847565b8484546127c9565b825550505050565b600090565b612883612876565b61288e818484612851565b505050565b5b818110156128b2576128a760008261287b565b600181019050612894565b5050565b601f8211156128f7576128c881612797565b6128d1846127ac565b810160208510156128e0578190505b6128f46128ec856127ac565b830182612893565b50505b505050565b600082821c905092915050565b600061291a600019846008026128fc565b1980831691505092915050565b60006129338383612909565b9150826002028217905092915050565b61294c82611f7c565b67ffffffffffffffff8111156129655761296461220d565b5b61296f8254612642565b61297a8282856128b6565b600060209050601f8311600181146129ad576000841561299b578287015190505b6129a58582612927565b865550612a0d565b601f1984166129bb86612797565b60005b828110156129e3578489015182556001820191506020850194506020810190506129be565b86831015612a0057848901516129fc601f891682612909565b8355505b6001600288020188555050505b505050505050565b60008154612a2281612642565b612a2c8186611f87565b94506001821660008114612a475760018114612a5d57612a90565b60ff198316865281151560200286019350612a90565b612a6685612797565b60005b83811015612a8857815481890152600182019150602081019050612a69565b808801955050505b50505092915050565b600060a082019050612aae60008301886121d9565b612abb60208301876120c3565b8181036040830152612acd8186612a15565b9050612adc6060830185611f52565b8181036080830152612aee8184612a15565b90509695505050505050565b7f596f752776652072657665616c2074686973206974656d20616c726561647921600082015250565b6000612b30602083611f87565b9150612b3b82612afa565b602082019050919050565b60006020820190508181036000830152612b5f81612b23565b9050919050565b600081549050612b7581612642565b9050919050565b60008190508160005260206000209050919050565b818103612b9f575050612c77565b612ba882612b66565b67ffffffffffffffff811115612bc157612bc061220d565b5b612bcb8254612642565b612bd68282856128b6565b6000601f831160018114612c055760008415612bf3578287015490505b612bfd8582612927565b865550612c70565b601f198416612c1387612b7c565b9650612c1e86612797565b60005b82811015612c4657848901548255600182019150600185019450602081019050612c21565b86831015612c635784890154612c5f601f891682612909565b8355505b6001600288020188555050505b5050505050505b565b600081905092915050565b6000612c8f82611f7c565b612c998185612c79565b9350612ca9818560208601611f98565b80840191505092915050565b6000612cc18285612c84565b9150612ccd8284612c84565b91508190509392505050565b7f4e487b7100000000000000000000000000000000000000000000000000000000600052601160045260246000fd5b6000612d138261202e565b91507fffffffffffffffffffffffffffffffffffffffffffffffffffffffffffffffff8203612d4557612d44612cd9565b5b600182019050919050565b600060a082019050612d6560008301886121d9565b612d7260208301876120c3565b8181036040830152612d848186612a15565b9050612d936060830185611f52565b8181036080830152612da58184611fd3565b90509695505050505050565b600081519050919050565b600082825260208201905092915050565b6000612dd882612db1565b612de28185612dbc565b9350612df2818560208601611f98565b612dfb81611fc2565b840191505092915050565b6000608082019050612e1b60008301876120c3565b612e2860208301866120c3565b612e3560408301856121d9565b8181036060830152612e478184612dcd565b905095945050505050565b600081519050612e6181611eed565b92915050565b600060208284031215612e7d57612e7c611eb7565b5b6000612e8b84828501612e52565b91505092915050565b7f4e487b7100000000000000000000000000000000000000000000000000000000600052601260045260246000fd5b6000606082019050612ed860008301866120c3565b612ee560208301856121d9565b612ef260408301846120c3565b949350505050565b6000604082019050612f0f60008301856120c3565b612f1c60208301846121d9565b939250505056fea2646970667358221220dddd5e12d3b248a75677d7ca8e44726d552d6d824e75771cce6ed9def2c292e264736f6c6343000818003368747470733a2f2f697066732e696f2f697066732f516d576951453635746d70597a636f6b436865516d6e673244434d33334445686a586350423650616e7770415a6f68747470733a2f2f6170692e64696365626561722e636f6d2f392e782f626f747474732d6e65757472616c2f7376673f736565643d",
  "linkReferences": {},
  "deployedLinkReferences": {}
}